:1000000042C08FC15BC05AC059C058C057C056C00B
:1000100055C054C053C052C051C050C04FC04EC054
:100020004DC04CC04BC04AC049C048C047C046C084
:1000300045C044C0090212000101008019090400F2
:1000400000000000000012011001FF000008C016AF
:10005000DC050401010200010E03550053004200BB
:100060006100730070001C037700770077002E009A
:10007000660069007300630068006C002E00640075
:1000800065000403090411241FBECFEFD2E0DEBFD8
:10009000CDBF11E0A0E0B1E0EEE0FEE002C00590CF
:1000A0000D92A230B107D9F711E0A2E0B1E001C092
:1000B0001D92A834B107E1F797D6A7C6A1CF1F9329
:1000C000CF93DF9360912801635067FDA2C08091B8
:1000D0002501CCE0D0E0C81BD109C45DDE4F809182
:1000E00024018D3209F084C0683009F090C083EC9F
:1000F000809318018AE580930101109202018881A2
:10010000807619F0CE0179D460C08A8110922101E5
:100110009981911106C01092220121E231E082E022
:1001200050C0953019F4809329013DC09630A9F54F
:100130009B81913019F486E490E004C0923041F440
:1001400084E390E0909327018093260182E121C00F
:100150009330F1F4811108C082E890E09093270178
:100160008093260184E015C0813041F486E690E05A
:1001700090932701809326018CE10BC0823041F4DB
:1001800088E590E090932701809326018EE001C0DE
:1001900080E090E49093020118C0983079F0993093
:1001A00031F480932B0121E231E080E00AC081E04C
:1001B0009A3009F080E021E231E003C02BE231E027
:1001C00081E030932701209326018F3F39F49881F5
:1001D00097FD8E8190E89093020107C09F81911155
:1001E00004C09E81981708F4892F809300010FC0E6
:1001F0008091020187FF0BC0CE0165D58F3F21F4AE
:100200008EE18093010103C08111109200011092D0
:1002100028018091010184FF56C0809100018F3F29
:1002200009F451C0182F893008F018E0811B809321
:1002300000018091180198E8892780931801112303
:1002400089F18091020187FF08C0612F89E191E067
:10025000F0D4182F893088F525C0E0912601F0915F
:10026000270186FF0BC029E131E0D90184918D93EC
:100270003196812F820F8A13F9CF10C0DF0149E137
:1002800051E0EA019D012F5F3F4FF9018C91899365
:10029000812F840F8C1711F0D901F4CFF09327012F
:1002A000E0932601612F89E191E037D01C5F1C307B
:1002B00041F08FEF8093000104C08FEF8093000125
:1002C0001EE11093010184E199B19C7031F48150D9
:1002D000D9F71092290110922301DF91CF911F913C
:1002E0000895E9E6F0E0808183608083E89A0895CC
:1002F000A82FB92F80E090E041E050EA609530E00F
:1003000009C02D9182279795879510F0842795270E
:10031000305EC8F36F5FA8F30895EADF8D939D9375
:100320000895CF93CFB7CF93C3954B9BE9F74B9BE2
:1003300009C04B9B07C04B9B05C04B9B03C04B9B0D
:1003400001C0A1C0DF93C0912501DD27C45DDE4F50
:100350004B9B02C0DF91EBCF2F930F931F9309B1FB
:100360002FEF03FB20F94F933F9319B14FEF012774
:1003700003FB21F93BE031C04E7F012F19B1216011
:1003800028C0102F4D7F2260000009B129C04B7F8B
:100390002460012F000019B12BC019B1477F2860DC
:1003A0002AC04F7E09B120612CC04F7D19B1206257
:1003B0002FC04F7B09B1206432C0422709B1499355
:1003C0004FEF0000102713FB20F919B11C70C9F181
:1003D000297F91F2012703FB21F909B1237F89F2DB
:1003E000315058F1102713FB22F919B1277E79F209
:1003F000012703FB23F92F7C81F209B1102713FB9E
:1004000024F92F7971F200C019B1012703FB25F9F6
:100410002F7359F200C009B1102713FB26F92230BF
:1004200040F200C019B1012703FB27F9243028F658
:100430004F77206819B10000F9CF11E01CBB0027ED
:1004400017C03B503195C31BD04011E01CBB088145
:10045000033CE9F00B34D9F0209123011981110FED
:100460001213EDCF093641F10D3211F0013E39F78B
:1004700000932A013F914F911F910F912F91DF918E
:10048000CCB3C0FD51CFCF91CFBFCF911895209164
:100490002A01222379F310912801112311F5343018
:1004A00012F13093280120932401109125013BE0A3
:1004B000311B3093250117C00091280101308CF4C5
:1004C0000AE53091010134FD10C000930101C8E13B
:1004D000D1E00FC02795A8F45150A9F4220F0000D5
:1004E000F9CF4AE503C042ED01C0432FC4E1D0E09B
:1004F00032E01AB11C605B9A1AB90BB120E41CE01F
:100500005F93012756E00BB9279520F4515021F451
:10051000220FF9CF012756E000003B5A0BB9D0F269
:10052000279528F4515029F4220F0000F9CF012714
:1005300056E027950BB920F4515021F4220FF9CF42
:10054000012756E0299133230BB921F6037F10913F
:100550002901110FC651D0400BB911F0109323019E
:1005600011E01CBB08601AB1137F402F437F5F91DD
:1005700000C000C00BB91AB94BB97CCF8EBD0DB409
:1005800007FEFDCF8EB5089521E196958795779565
:1005900067952A95D1F7209146012617D9F06093E7
:1005A0004601E0914301F09144018DE40995E09109
:1005B0004301F091440180E00995E0914301F091FD
:1005C0004401809146010995E0914301F091440175
:1005D00080E009940895809145018CBD809142018D
:1005E0008DBD0895882319F0883040F101C08AE05C
:1005F0002EEB32E0309344012093430110924201EC
:1006000091E090934701893099F018F4883091F087
:1006100008C08B3021F08C3021F49093420181E5A9
:100620000AC082E58093450181E0809342010895EC
:1006300082E501C083E580934501089526E433E017
:100640003093440120934301843081F030F48230B0
:1006500079F0833079F480E30EC0863061F020F0C9
:10066000873041F483E007C08CE005C088E103C017
:1006700080E601C080EC80934701089526B59091F3
:10068000470186B5821B8917E0F308950F931F93E6
:10069000CF93DF931F92CDB7DEB708E010E087FF5E
:1006A00002C02B9A01C02B98880F110F1C991F5F55
:1006B0002D9A8983E3DF2D98E1DF015089810111B3
:1006C000EECF812F0F90DF91CF911F910F91089561
:1006D00084B18C6284B92A982D98D0DF2A9ACEDF13
:1006E0002A9880914301909144018E5B924009F4D5
:1006F00072DF10924601089584B1837D84B985B17B
:10070000837D85B91CBC0895CF93DF93C1E2C150AE
:1007100051F1E0914301F09144018CEA0995E09197
:100720004301F091440183E50995E0914301F09183
:10073000440180E00995D82FE0914301F0914401F4
:1007400080E00995D33589F01CBC98DF2A9A96DFA2
:100750002A9894DF80914301909144018E5B9240EE
:10076000B1F639DFD4CF81E001C080E0DF91CF91D5
:100770000895CF92DF92EF92FF926B017C0104DF2C
:100780008C2D8170880F880F880FE0914301F091C4
:10079000440180620995D701C60139E0B695A79555
:1007A000979587953A95D1F7E0914301F0914401EF
:1007B0000995D701C601B695A79597958795E091BC
:1007C0004301F09144010995E0914301F091440106
:1007D00080E0FF90EF90DF90CF900994CF92DF926E
:1007E000EF92FF920F931F93CF93DF931F92CDB79A
:1007F000DEB76B017C01142F2983C6DE8C2D81703E
:10080000880F880F880FE0914301F09144018064C4
:100810000995D701C60159E0B695A7959795879593
:100820005A95D1F7E0914301F09144010995D70120
:10083000C601B695A79597958795E0914301F091EC
:1008400044010995E0914301F0914401812F0995FC
:100850002981222321F01F3721F48FE0C3D080E0CB
:1008600010C006B51EE1C701B60183DF8F37B9F7A7
:1008700086B5801B8D3310F006B511501111F3CFE2
:1008800081E00F90DF91CF911F910F91FF90EF903A
:10089000DF90CF900895CF92DF92EF92FF920F9367
:1008A0001F93CF93DF931F92CDB7DEB76B017C010F
:1008B00049836ADEE0914301F09144018CE409959B
:1008C000D701C60179E0B695A795979587957A9552
:1008D000D1F7E0914301F09144010995D701C60198
:1008E000B695A79597958795E0914301F0914401BE
:1008F0000995E0914301F091440180E00995498117
:100900004F3F19F48FE06ED011C006B51EE1C7014C
:10091000B6012FDF8F3F51F486B5801B8D3310F069
:1009200006B511501111F3CF81E001C080E00F90A6
:10093000DF91CF911F910F91FF90EF90DF90CF90BB
:1009400008951F93CF93DF931F92CDB7DEB7182F73
:10095000E0914301F091440180EA99830995E09187
:100960004301F09144019981892F0995E091430158
:10097000F0914401812F0995E0914301F0914401E8
:1009800080E00F90DF91CF911F9109941F93CF9337
:10099000DF9300D0CDB7DEB7182FE0914301F0917F
:1009A000440180EC6A8399830995E0914301F091B9
:1009B00044019981892F0995E0914301F091440107
:1009C000812F0995E0914301F09144016A81862FBE
:1009D00009958EE107D080E00F900F90DF91CF91C5
:1009E0001F91089590E0981739F036B526B5231B6E
:1009F0002C33E0F39F5FF7CF0895CF93DF93EC01A3
:100A00008981813041F480910E01ECDD10920D015D
:100A10005D985EDE04C1823019F46EDE5D9AFFC01F
:100A2000833009F5E0914301F09144018A810995F1
:100A300080931001E0914301F09144018B8109956D
:100A400080931101E0914301F09144018C8109955B
:100A500080931201E0914301F09144018D81099549
:100A600080931301DAC0843011F580910D0181115A
:100A700012C08B8190E0982F88272A81822BAA2789
:100A800097FDA095BA2F8093090190930A01A09336
:100A90000B01B0930C018F8190E0982F88272E8155
:100AA000822B909308018093070182E08CC08730ED
:100AB00011F580910D01811112C08B8190E0982F6A
:100AC00088272A81822BAA2797FDA095BA2F809389
:100AD000090190930A01A0930B01B0930C018F813F
:100AE00090E0982F88272E81822B90930801809385
:100AF000070183E068C0853021F406DE8093100191
:100B00007FC08630B9F580910D01811112C04B81F3
:100B100050E0542F44278A81482B662757FD609563
:100B2000762F4093090150930A0160930B01709353
:100B30000C013C812D81822F8F7080930401822FC4
:100B4000807F40E1849FC0011124830F911D909309
:100B500006018093050120FD809303018F8190E0C1
:100B6000982F88272E81822B90930801809307016C
:100B700081E029C0883059F580910D01811112C0A2
:100B80004B8150E0542F44278A81482B662757FD1C
:100B90006095762F4093090150930A0160930B01F1
:100BA00070930C011092060110920501109204013D
:100BB0008F8190E0982F88272E81822B90930801B7
:100BC0008093070184E080930F018FEF29C0893063
:100BD00081F481E080930D018A819B81AC81BD818C
:100BE0008093090190930A01A0930B01B0930C012B
:100BF00016C08A3039F48A8180930E011092100158
:100C000081E00EC08F3759F481E08093100110927B
:100C10001101109212011092130184E001C080E0D2
:100C200020E131E03093270120932601DF91CF911D
:100C300008950F931F93CF93DF93162F20910F01E9
:100C40003EEF320F323010F02530A9F5082FEC01BD
:100C50008C2F801B811750F580910F01823051F449
:100C60006091090170910A0180910B0190910C0132
:100C700080DD05C08091090190910A0162DE8883C0
:100C80004091090150910A0160910B0170910C0192
:100C90004F5F5F4F6F4F7F4F4093090150930A01A1
:100CA00060930B0170930C012196D2CF183028F479
:100CB00010920F0102C08FEF01C0812FDF91CF9101
:100CC0001F910F910895FF920F931F93CF93DF937E
:100CD000F62E20910F01213021F4082FEC0110E0B5
:100CE0003BC02D7F2430C9F38FEF78C080910F0176
:100CF000813009F04FC020910501309106016091CB
:100D0000090170910A0180910B0190910C01232B34
:100D100041F521E0488162DD809107019091080151
:100D200001979093080180930701892BD1F140919D
:100D3000090150910A0160910B0170910C014F5F04
:100D40005F4F6F4F7F4F4093090150930A016093AB
:100D50000B0170930C0121968C2F801B8F1530F2A4
:100D60003CC020E048813ADD8091030181508093AE
:100D700003018111D1CF6091090170910A01809125
:100D80000B0190910C01488186DD809105018093D3
:100D90000301C2CF68818091090190910A01F6DDBB
:100DA000BBCF10920F018091040181FF14C02091EC
:100DB000030130E080910501909106012817390761
:100DC00051F06091090170910A0180910B0190919D
:100DD0000C01488160DD11E0AACF812FDF91CF9116
:100DE0001F910F91FF90089580E48BB915B888E6A4
:100DF0008AB980E68AB917B818B883E085BD71DA78
:0E0E000078945D9A5CD95D98FCCFF894FFCF92
:020E0E00FF5A89
:00000001FF
